:100000000C9453010C9465010C9465010C946501EA
:100010000C9465010C9465010C9465010C946501C8
:100020000C9465010C9465010C9465010C946501B8
:100030000C9465010C9465010C9465010C946501A8
:100040000C9465010C9465010C9465010C94650198
:100050000C9465010C9465010C9465010C94650188
:100060000C9465010C94650120676F72504D564EDB
:100070000000891112239B322446AD573665BF74A8
:10008000488CC19D5AAFD3BE6CCAE5DB7EE9F7F858
:100090008110080193331A22A5562C47B7753E6488
:1000A000C99C408DDBBF52AEEDDA64CBFFF976E838
:1000B00002218B30100299132667AF763444BD5568
:1000C0004AADC3BC588ED19F6EEBE7FA7CC8F5D918
:1000D00083310A2091121803A7772E66B5543C4548
:1000E000CBBD42ACD99E508FEFFB66EAFDD874C9F8
:1000F00004428D5316619F702004A9153227BB3628
:100100004CCEC5DF5EEDD7FC6888E1997AABF3BAD7
:1001100085520C4397711E60A1142805B3373A2607
:10012000CDDE44CFDFFD56ECE9986089FBBB72AAB7
:1001300006638F7214409D512225AB343006B917E7
:100140004EEFC7FE5CCCD5DD6AA9E3B8788AF19B97
:1001500087730E6295501C41A3352A24B1163807C7
:10016000CFFF46EEDDDC54CDEBB962A8F99A708B77
:10017000088481951AA793B62CC2A5D33EE1B7F0A7
:100180004008C919522BDB3A644EED5F766DFF7C57
:10019000899400859BB712A6ADD224C3BFF136E087
:1001A000C1184809D33B5A2AE55E6C4FF77D7E6C37
:1001B0000AA583B4188691972EE3A7F23CC0B5D167
:1001C0004229CB38500AD91B666FEF7E744CFD5D17
:1001D0008BB502A499961087AFF326E2BDD034C147
:1001E000C3394A28D11A580BE77F6E6EF55C7C4DF7
:1001F0000CC685D71EE597F42880A1913AA3B3B227
:10020000444ACD5B5669DF78600CE91D722FFB3ED6
:100210008DD604C79FF516E4A9902081BBB332A206
:10022000C55A4C4BD7795E68E11C680DF33F7A2EB6
:100230000EE787F61CC495D52AA1A3B03882B193E6
:10024000466BCF7A5448DD59622DEB3C700EF91F96
:100250008FF706E69DD414C5ABB122A0B9923083C6
:10026000C77B4E6AD5585C49E33D6A2CF11E780F76
:1002700086010100060101000601000000000000E7
:100280004A544147494345206D6B494900657361B4
:1002900072454D564E4003A001CF00670033002247
:1002A0000010008A000011241FBECFEFD8E0DEBF8F
:1002B000CDBF22E0A0E0B1E001C01D92AD3CB2078D
:1002C000E1F70E94EB020C94BA050C94000084E064
:1002D00085BD80E887BD8BE092E0A99BFECF95BBF2
:1002E0008150D9F782EC84BDA99BFECF82E085BB0B
:1002F0005698089515BC82E287BD8CE086BD82E0E9
:1003000085BB5E984E99FECF81E085BDA99BFECF4F
:1003100082E085BB86E487BD91E080E022E0A99B76
:10032000FECF25BB4E99892B990FC9F7A99BFECF0C
:1003300092E095BB90EB97BD4E9BFECF5E9A0895E1
:10034000A99BFECF92E095BB15BC26E427BD25E412
:1003500026BD22E824BD21E025BD569A95BB91E03B
:1003600020E0682F082E000C770BE2E8F2EC32E078
:10037000492F50E046235723452BD1F0F4BD20955B
:10038000A99BFECF35BB990F99F792EC211101C0C3
:1003900092E894BDA99BFECF92E095BB92EC94BDF0
:1003A000A99BFECF92E095BB9DE897BD5698089516
:1003B000E4BDE6CF85E50E94A0018BE80E94A00184
:1003C0000C947A0185E50E94A00184E00E94A001BE
:1003D00082E00E94A00180E10E94A0010C947A01B9
:1003E0008627E82FF0E0EE0FFF1FE059FF4F259121
:1003F0003491872F8227932F0895CF93C82F85E5B7
:100400000E94A00184E60E94A0018C2F0E94A001FE
:10041000CF910C947A01CF93DF93D82FC92F85E524
:100420000E94A00189E60E94A0018D2F0E94A001D8
:100430008C2F0E94A001DF91CF910C947A01CF9371
:1004400085E50E94A00189E20E94A0010E947A0134
:10045000C82F0E947A01982F8C2FCF9108951F9357
:10046000CF93DF93182FD92FC62F85E50E94A001C7
:1004700084E40E94A001812F0E94A0018D2F0E9480
:10048000A0010E947A018C2F0E94A001DF91CF91E0
:100490001F910C947A0185E50E94A00188EC0E94CE
:1004A000A00189E50E94A00185E50E94A00188ECD9
:1004B0000E94A00180E00E94A0010E94DA018E70DB
:1004C000E1F30895EF92FF921F93CF93DF93D82F1C
:1004D000C62F1FEF180F0E941F027C010E94E2012D
:1004E0008370E1F7C7010E940B0285E50E94A0011D
:1004F00080EA0E94A001812F0E94A001EC2FF0E071
:10050000EB5FFE4F86810E94FD01DC0FCF5FCD17B0
:1005100051F0EC2FF0E0EB5FFE4F86810E94A001CE
:100520000E947A01F3CF8C2FDF91CF911F91FF9022
:10053000EF9008950F931F93CF938C0185E50E9450
:10054000A00180EE0E94A001C8E0F80184910E9401
:10055000A0010F5F1F4FC150C1F7CF911F910F91A5
:100560000895E5E0F1E021E030E0338322838683E3
:1005700008950E944B020E94DA018F7E883041F07C
:10058000823879F488E690E00E949A020E944B0239
:1005900064E080E090E10E942F022D9A80E80C94A4
:1005A000B10222E030E0309308012093070195EA80
:1005B00090930B0180930C0108958091C00087FFF8
:1005C000FCCF8091C60008959091C00095FFFCCFAC
:1005D0008093C6000895CF93DF9300D01F92CDB7CC
:1005E000DEB78FE380937E008FEF8BB98FED85B9F7
:1005F00080E880BF8DEC8093640082E08093C0002F
:1006000087E68093C40088E18093C10086E08093F0
:10061000C20082EC84BD85E486BD86E487BD81E0AE
:1006200085BD02E010E065EAB62EAA24A39473E02B
:10063000472E512CE4E02E2E312C0E94DD028B310E
:10064000E1F76FEF7FEF0E94F0019B838A8355E013
:10065000E52E51E0F52E0E94DD02F70181937F0126
:100660006A817B810E94F0019B838A83FBE0EF1605
:10067000F1E0FF0681F7809007019090080123ECDC
:10068000821621E09206C8F60E94DD028E30A9F69D
:100690006A817B810E94F0016C0185E091E09B837F
:1006A0008A838A819B81855091408815990568F4D9
:1006B0000E94DD02EA81FB818683B6010E94F0017F
:1006C0006C018A819B810196EACF0E94DD028983B9
:1006D0000E94DD02E981982F8E2FC816D90609F0F5
:1006E000ACCF80910B01883009F418C100F582303D
:1006F00009F401C138F4882309F412C1813099F159
:1007000080EABBC0843009F461C108F4ACC0853014
:10071000B9F70E94DA01883009F41AC11093080170
:1007200000930701B0920B01A0920C015CC08F30C6
:1007300009F4F4C068F48B3099F08C3009F780919B
:10074000FF01809302018091010280930101E6C0C4
:10075000853109F4E9C0843309F4CAC1843181F6D2
:100760000E94B90240C092E09093000130920401CF
:100770002092030115BC26E427BD25E426BDF2E83E
:10078000F4BD85BD569A95BB0E94670122E824BD41
:10079000A99BFECF82E085BB569A0E946701A99B68
:1007A000FECF82E085BB86E487BD85E486BDA5BC1F
:1007B00085E50E94A00182EC0E94A00186E00E94D3
:1007C000A0018DE190E09093080180930701E0E79C
:1007D000F2E0ABE0B1E084918D93319688E291E054
:1007E0008A179B07C1F78BE10E94E4026FEF7FEF4E
:1007F0000E94F0019B838A8395E0C92E91E0D92E57
:10080000F60181916F010E94E4026A817B810E945E
:10081000F0019B838A83EC14FD0491F78EE00E9423
:10082000E4026A817B810E94F0017C0185E091E015
:100830009B838A832A813B8125503140EA81FB8159
:100840003196FB83EA838091070190910801281774
:10085000390708F071C185810E94E402B7010E9446
:10086000F0017C01E7CF80910C018330A1F140F4CD
:100870008130A9F08230F9F081EA0E94B102B3CF51
:10088000853091F18630C1F75092080140920701FE
:10089000F8E8F0930C0123E120930D0108C0509279
:1008A00008014092070180930C0180930D0181E8BB
:1008B00080930B0198CFE5E0F0E0F0930801E0931E
:1008C000070110920C0186E080930D0110920E0139
:1008D00080930F01ECCF10930801009307018091E2
:1008E000000180930C01E3CF1093080100930701EE
:1008F00080910301F6CF80910C01833059F085304F
:1009000009F0BACF80910D0190E09093040180939B
:10091000030104C080910D018093000180E8ADCFF8
:1009200030920401209203010E94DA018F7E883008
:1009300059F0823859F01093080100930701B092E2
:100940000B0180930C014FCF0E944B022D98E6CFF4
:10095000E0910D01F0910E01FB83EA83809111017A
:10096000909112010E940B0285E50E94A00180EA8D
:100970000E94A0018A8181500E94A00185E50E9409
:10098000A00184E20E94A0010E947A0180930C01E0
:100990003DE0C32E31E0D32E42E0842E912C8A819B
:1009A0009B818815990548F00E947A01F601819390
:1009B0006F01FFEF8F1A9F0AF2CF8A819B81019608
:1009C000909308018093070182E872CF0E94DA01B8
:1009D000883009F0A3CE80910C01D0901101C09015
:1009E000120190E4980F923008F054C06090020118
:1009F00091E0998380910D0190910E019B838A83F0
:100A00008D2D9C2D0E940B02D1948FEF860DD82244
:100A1000EA81FB81DE161F0611F008F0DA802AE079
:100A2000722EDD20B1F06AE08D2D0E946202782ED8
:100A30008A819B818D1991099B838A830E941F0261
:100A40006C01698180E090E10E942F02C6010E9442
:100A50000B02C62CD12CEA81FB81309709F45ECFC2
:100A6000672DEC15FD05D8F1862D0E946202782EC7
:100A70008A819B818C199D099B838A830E941F0216
:100A80004C01698180E090E10E942F02C4010E9424
:100A90000B02E1CF60900101823B40F1843B30F0DA
:100AA000845C823018F5F3E0F983A4CFE09115015E
:100AB000E98386E090E10E940B0289810E94FD019A
:100AC00080E00E94FD018D2D0E94FD018C2D0E9471
:100AD000FD0167E080E090E10E942F021FCF8A8134
:100AE0000E946202782E1B821A82C8CF82EAC5CE8B
:100AF000E0910D01F0910E01FB83EA8380910C01DE
:100B0000863058F4843068F48111FACD8DE892E093
:100B10000E949A020E944B0223CE883008F463CED2
:100B2000EFCD0E94E2018370E1F76FEF8A819B8134
:100B30000E942F0262E0CECF8E2D0E94E4028F2D04
:100B40000E94E4028091C00080648093C000809184
:100B5000C00086FFFCCFE0910301F0910401EE0F8D
:100B6000FF1FED56FD4F859194919093C5008093A2
:080B7000C40063CDF894FFCF2F
:00000001FF
